:100000000C94AC000C94D4000C94D4000C944503D4
:100010000C946F030C9499030C94D4000C94D400AA
:100020000C94D4000C94D4000C94D4000C94D40000
:100030000C94D4000C94D4000C94D4000C94D400F0
:100040000C94230A0C94D4000C94B30B0C94D4009D
:100050000C94D4000C94D4000C94D4000C94D400D0
:100060000C94D4000C94D40000C2010001000500DF
:100070000500030000E1000001000F000F000D006B
:1000800000960000020019001A001700127A000002
:100090000700200021001D00807000000B002300DD
:1000A00023002000004B000014003700370034000C
:1000B000403800001E004B004B0048008025000027
:1000C0003200720072007000C01200006E00E90081
:1000D000E900E60060090000E500D801D801D5017B
:1000E000B0040000D301B403B403B1032C01000039
:1000F0006707DD0EDD0EDA0E000000002400270089
:100100002A0000000000250028002B00000000004D
:100110002300260029000404040404040404020249
:100120000202020203030303030301020408102076
:100130004080010204081020010204081020000081
:100140000007000201000003040600000000000098
:100150000000ED06380DE60611241FBECFEFD4E0F7
:10016000DEBFCDBF11E0A0E0B1E0ECE1FEE102C0F6
:1001700005900D92A437B107D9F712E0A4E7B1E0DA
:1001800001C01D92A73FB107E1F711E0C6E5D1E03C
:1001900004C02297FE010E94FD0EC235D107C9F7A7
:1001A0000E941C0A0C94010F0C940000FB01DC015E
:1001B0000D900020E9F7119701900D920020E1F7D2
:1001C0000895FB01DC0101900D920020E1F70895F4
:1001D000FB01DC014150504048F001900D9200209D
:1001E000C9F701C01D9241505040E0F708950F93A8
:1001F0001F938C01FC01848160E00E94170B81E059
:1002000090E00E94AF0AF801848161E00E94170B20
:1002100081E090E00E94AF0AF801848160E00E94D2
:10022000170B84E690E00E94AF0A1F910F9108958A
:10023000CF92DF92EF92FF920F931F93CF93DF93B2
:10024000D82EC92E282F392FC9018C01C0E0D0E04B
:10025000E62EFF24F801858161E00E94F70AB701CC
:100260000C2E02C0759567950A94E2F76170F8014B
:1002700085810E94170B21960F5F1F4FC830D10553
:1002800049F78D2D9C2D0E94F700DF91CF911F9192
:100290000F91FF90EF90DF90CF900895CF92DF9273
:1002A000EF92FF920F931F93CF93DF93D82EC92E17
:1002B000282F392FC9018C01C0E0D0E0E62EFF24A1
:1002C000F801858161E00E94F70AB7010C2E02C097
:1002D000759567950A94E2F76170F80185810E942F
:1002E000170B21960F5F1F4FC430D10549F78D2D95
:1002F0009C2D0E94F700DF91CF911F910F91FF90ED
:10030000EF90DF90CF9008951F93CF93DF93EC0190
:10031000162F8A81642F0E94170B8B8160E00E9448
:10032000170B8D8584FF05C0CE01612F0E94180137
:100330000EC0612F70E084E0759567958A95E1F7AE
:10034000CE010E944E01CE01612F0E944E01DF912D
:10035000CF911F91089541E00E948401089540E0EB
:100360000E9484010895FC016685862F846086873B
:100370006C60CF010E94AF010895DF93CF93CDB79A
:10038000DEB728970FB6F894DEBF0FBECDBF9C0135
:10039000FE013196AEE4B1E088E00D90019281500B
:1003A000E1F7F9018189841710F4482F4150E42FB7
:1003B000F0E0EE0FFF1FEC0FFD1F8181680F6068FA
:1003C000C9010E94AF0128960FB6F894DEBF0FBE98
:1003D000CDBFCF91DF91089561E00E94AF0180ED24
:1003E00097E00E94AF0A0895CF93DF93EC0142306B
:1003F00018F08D8588608D87498B1A8A222329F011
:10040000413019F48D8584608D8780E593EC0E94DE
:10041000AF0A8A8160E00E94170B8C8160E00E9425
:10042000170B8B8160E00E94170B6D8564FD1DC06A
:10043000CE0163E00E944E0184E991E10E94AF0A7F
:10044000CE0163E00E944E0184E991E10E94AF0A6F
:10045000CE0163E00E944E0186E990E00E94AF0A5F
:10046000CE0162E00E944E0116C06062CE010E9481
:10047000AF0184E991E10E94AF0A6D856062CE010F
:100480000E94AF0186E990E00E94AF0A6D8560622C
:10049000CE010E94AF016D856062CE010E94AF0166
:1004A00084E08E87CE010E94B301CE010E94EC0150
:1004B00082E08F87CE0166E00E94AF01DF91CF918D
:1004C00008956F927F928F92AF92CF92EF920F9397
:1004D0001F93DF93CF93CDB7DEB73C01162F842F48
:1004E000F301428323830483E582C682A782808648
:1004F0009D8591879E8592879F859387988994870C
:1005000061E00E94F70AF301838161E00E94F70A2B
:10051000F301848161E00E94F70A112319F0F301CD
:10052000158603C080E1F3018587C30160E141E0E6
:1005300020E00E94F401CF91DF911F910F91EF9085
:10054000CF90AF908F907F906F9008958F92AF92E1
:10055000CF92EF920F931F93CF93DF93DC01362F4F
:10056000542F722F102FAE2C8C2C88E491E0119612
:100570009C938E9300D000D0EDB7FEB73196CDB7E7
:10058000DEB71982118212821382CD0161E0432FFE
:100590002FEF052FE72EC12E0E9461020F900F90C2
:1005A0000F900F90DF91CF911F910F91EF90CF900F
:1005B000AF908F9008950F931F93CF93DF93FC011B
:1005C000718976957170A481B5819381772329F023
:1005D0008C91892309F454C004C08C91892309F0BB
:1005E0004FC08185928520E001972FEF8F3F9207C2
:1005F000D9F7C385D485A481B581138160E031E04A
:1006000040E050E000E0CE01202F01972FEF8F3F18
:100610009207D9F78C91812311F0632B03C0832FAC
:1006200080956823330F4F5F5F4F4830510559F76E
:100630008585968520E001972FEF8F3F9207D9F7A8
:10064000711160958091B6012091B70190E00196FB
:100650008F73907030E08217930779F0E091B601C4
:10066000F0E0EA58FE4F60838091B60190E0019679
:100670008F7390708093B60103C081898160818BF4
:10068000DF91CF911F910F9108951F920F920FB696
:100690000F9211242F933F934F935F936F937F9308
:1006A0008F939F93AF93BF93EF93FF9380917401C8
:1006B00090917501009711F00E94DB02FF91EF917C
:1006C000BF91AF919F918F917F916F915F914F916A
:1006D0003F912F910F900FBE0F901F9018951F9272
:1006E0000F920FB60F9211242F933F934F935F9366
:1006F0006F937F938F939F93AF93BF93EF93FF93EA
:100700008091740190917501009711F00E94DB02B5
:10071000FF91EF91BF91AF919F918F917F916F91D9
:100720005F914F913F912F910F900FBE0F901F90AF
:1007300018951F920F920FB60F9211242F933F938B
:100740004F935F936F937F938F939F93AF93BF93D9
:10075000EF93FF938091740190917501009711F0D0
:100760000E94DB02FF91EF91BF91AF919F918F911A
:100770007F916F915F914F913F912F910F900FBE9D
:100780000F901F901895CF92DF92EF92FF920F93E8
:100790001F93CF93DF93EC017A018B01188A1F8698
:1007A0001E861D861C861B861A86198620E030E070
:1007B0006901CC0CDD1CC20ED31EB601660F771F7B
:1007C000660F771FAB0148595F4FFA0185919591EC
:1007D000A591B4918E159F05A007B107E9F4FB011F
:1007E000E459FF4F859194919A878987FB01E259DB
:1007F000FF4F859194919C878B87FB01E059FF4FB8
:10080000859194919E878D87FB01EE58FF4F8591CE
:100810009491988B8F8706C02F5F3F4F2C30310506
:1008200009F0C6CF8D859E85892B09F449C04A8180
:10083000463108F03DC090916800483010F484E0E3
:1008400005C04E3010F082E001C081E0892B80931A
:100850006800483028F4EDE6F0E0ADE6B0E00BC00B
:100860004E3028F0ECE6F0E0ACE6B0E004C0EBE699
:10087000F0E0ABE6B0E05081483040F481E090E039
:1008800002C0880F991F4A95E2F710C0242F30E06C
:100890004E3018F42850304002C02E50304081E0D5
:1008A00090E002C0880F991F2A95E2F7852B8C9360
:1008B0008F85988920E001972FEF8F3F9207D9F716
:1008C00080917401909175018C179D0781F0898941
:1008D0008E7F898B9FB7F8941092B6018091B601F4
:1008E0008093B701D0937501C09374019FBFDF91CE
:1008F000CF911F910F91FF90EF90DF90CF900895CF
:10090000FC014281463180F5483028F4EDE6F0E004
:10091000ADE6B0E00BC04E3028F4EBE6F0E0ABE61D
:10092000B0E004C0ECE6F0E0ACE6B0E05081483066
:1009300040F481E090E002C0880F991F4A95E2F7E9
:1009400010C0242F30E04E3018F42850304002C040
:100950002E50304081E090E002C0880F991F2A9508
:10096000E2F7809585238C930895FC018AE591E058
:1009700091838083CF010E9480040895FC018091BF
:100980007401909175018E179F0789F081898E7F80
:10099000818B9FB7F8941092B6018091B601809335
:1009A000B701F0937501E09374019FBF06C0909169
:1009B000B7018091B601981719F42FEF3FEF0FC0E0
:1009C000E091B701F0E0EA58FE4F20818091B70135
:1009D00090E001968F7390708093B70130E0C90169
:1009E0000895FC0180917401909175018E179F0705
:1009F00091F081898E7F818B9FB7F8941092B60118
:100A00008091B6018093B701F0937501E093740172
:100A10009FBF80E008958091B6012091B70190E0DA
:100A2000805C9F4F821B910960E470E00E94970EEA
:100A300008950F931F93DC011F968D919C91509701
:100A4000892B09F4B6C080917401909175018A17C1
:100A50009B07A1F051968C9151978E7F51968C9364
:100A600051979FB7F8941092B6018091B601809388
:100A7000B701B0937501A09374019FBF0FB7F894AD
:100A800051968C9151971796ED91FC911897169667
:100A90002C91169781FF88C08081822B80831F96BE
:100AA0008D919C915097049620E001972FEF8F3FF6
:100AB0009207D9F751968C91519781FF35C031E05B
:100AC00040E050E070E010E0832F90E08623972311
:100AD0001796ED91FC91189716962C911697892BE5
:100AE00029F0808120952823208303C08081822BD8
:100AF00080831F968D919C915097212F01972FEF06
:100B00008F3F9207D9F7330F4F5F5F4F4830510542
:100B1000D9F61796ED91FC911897908116968C91C5
:100B200016978095892333C031E040E050E070E0B3
:100B300010E0832F90E0862397231796ED91FC9188
:100B4000189716962C911697892B21F08081822B6D
:100B5000808304C080812095282320831F968D9157
:100B60009C915097212F01972FEF8F3F9207D9F734
:100B7000330F4F5F5F4F48305105D9F61796ED910F
:100B8000FC911897808116969C911697892B8083EB
:100B90000FBF1F968D919C91509720E001972FEFEA
:100BA0008F3F9207D9F705C08081209528232083A5
:100BB00076CF1F910F9108951F93CF93DF93EC0190
:100BC000162F862F60E00E94F70A898981FD04C0F4
:100BD000812F61E00E94170B1A83212F30E0C90199
:100BE000865D9E4FFC0184918B832A5E3E4FF90106
:100BF0006491E62FF0E0EE0FFF1FE45FFE4F85915A
:100C000094919D838C83DF91CF911F910895FF92E2
:100C10000F931F938C01F62E862F61E00E94F70A36
:100C20008F2D61E00E94170B8F2D90E0FC01E65D97
:100C3000FE4FE491D8011696EC9316978A5E9E4F6C
:100C4000FC016491E62FF0E0EE0FFF1FEE5FFE4F18
:100C50008591949118969C938E9317971F910F915D
:100C6000FF900895FF920F931F938C01F62E8AE553
:100C700091E0F80191838083128611861486138691
:100C800016861586108A178681892170220F8C7F1F
:100C9000822B818BC801642F0E940706C8016F2D2B
:100CA0000E94DC051F910F91FF900895982F8230CC
:100CB00081F4E8EBF1E001C0119281E0E93CF80732
:100CC000D9F7719780818F5F808382E08093B9012B
:100CD0000895833041F48091B8018F5F8093B8010B
:100CE0009093C80108958091B9018230D1F4809128
:100CF000C8018330B1F0E091B801EF5FE093B80133
:100D0000E13148F0E8EBF1E001C0119281E0E93C0B
:100D1000F807D9F70895FF27E7FDF095E854FE4F4F
:100D20009083089590915102992351F48230B9F43F
:100D300080932C021092500281E08093510208951A
:100D400095325CF4E92FFF27E7FDF095E45DFD4F58
:100D500080839F5F909351020895109251020895ED
:100D6000CF92EF920F938130910519F56F5F7F4F0E
:100D700049F580EE91E068E047E020E00E9432060D
:100D800082EF91E06CE04BE025E004E053E0E52EDB
:100D900032E0C32E0E94A60284E691E09093F30114
:100DA0008093F20110922B0210920502109216020B
:100DB00009C0892B39F46F5F7F4F21F480EE91E0F9
:100DC0000E94B5040F91EF90CF90089580E090E0DD
:100DD0006FEF7FEF0E94B006089581E090E06FEF23
:100DE0007FEF0E94B0060895EF92FF920F931F933A
:100DF0008C017A01439640E150E00E94E800C8016E
:100E00008496B70140E150E00E94E800F80113A287
:100E100014AA1F910F91FF90EF90089582EF91E037
:100E200060E142E020E00E94F40182EF91E060E0A6
:100E300071E04DE051E00E94F4060E94770A609351
:100E40002702709328028093290290932A0281E05E
:100E500080932B0281E3809380001092810080E8D0
:100E600090E090938B0080938A008AE061E00E947A
:100E7000F70A80EE91E040E855E260E070E00E9401
:100E8000C30384EE92E040E855E260E070E00E9427
:100E9000F00BE8EBF1E001C0119281E0E93CF807CA
:100EA000D9F7089506C084EE92E00E94FD0C0E94DE
:100EB000920684EE92E00E94E90C8823A1F78091CB
:100EC0002C02823009F07CC080915002833009F0FE
:100ED00077C080912D02863034F48430B4F58130AF
:100EE00009F06AC004C0863009F066C04FC084EEC5
:100EF00092E062E070E00E94700E8091D50188233C
:100F0000B9F084EE92E062E070E00E94700E84EE30
:100F100092E065ED71E00E94A90D84EE92E060E040
:100F200070E00E94700E10922C021092510206C0C6
:100F300084EE92E063E070E00E94700E84EE92E036
:100F400063E070E00E94700E089510923E021092CD
:100F50004F0282EF91E00E94EC0182EF91E06EE29D
:100F600072E00E94A90D82EF91E060E041E00E94F2
:100F7000BD0182EF91E06FE372E00E94A90D0E9433
:100F8000770A605F784D8F4F9F4F0AC082EF91E0E4
:100F90006EE272E04FE352E00E94F4060E94770A8C
:100FA00060932702709328028093290290932A026B
:100FB00081E080932B02089510922C02109251022E
:100FC000089506C080EE91E00E94BE040E9456067D
:100FD00080EE91E00E94F1048823A1F79091B9017D
:100FE0009230A9F58091C801833089F590938100F2
:100FF00062E370E080E090E00E94850A1092810038
:1010000085ED91E06AEB71E04AE050E00E94E80073
:101010001092DF0182EF91E00E94EC010E94770ABA
:10102000605F784D8F4F9F4F609327027093280227
:101030008093290290932A0281E080932B0282EF11
:1010400091E065ED71E00E94A90D1092B90108953B
:10105000DF93CF93CDB7DEB72E970FB6F894DEBFF0
:101060000FBECDBF8DE060E00E94F70A8EE060E029
:101070000E94F70A8FE060E00E94F70A80E160E0DA
:101080000E94F70A8DE061E00E94170B8EE061E09C
:101090000E94170B8FE061E00E94170B80E161E076
:1010A0000E94170B81E161E00E94F70A82E161E092
:1010B0000E94F70A83E161E00E94F70A81E160E0A3
:1010C0000E94170B82E160E00E94170B83E160E051
:1010D0000E94170B8DE00E94640B98878F838EE02F
:1010E0000E94640B9A8789878FE00E94640B9C871B
:1010F0008B8780E10E94640B9E878D8781E160E091
:101100000E94F70A82E160E00E94F70A83E160E052
:101110000E94F70A81E161E00E94170B82E161E021
:101120000E94170B83E161E00E94170B8DE061E0E4
:101130000E94F70A8EE061E00E94F70A8FE061E00A
:101140000E94F70A80E161E00E94F70A8DE060E00A
:101150000E94170B8EE060E00E94170B8FE060E0AA
:101160000E94170B80E160E00E94170B81E10E9452
:10117000640B9A83898382E10E94640B9C838B8336
:1011800083E10E94640B9C019E838D83DE01179690
:10119000E0E0F0E08D919C911197892B11F4AF0163
:1011A00007C031961296E430F105A1F74FEF5FEFDB
:1011B00089819A81892B19F480E090E00EC08B819F
:1011C0009C81892B19F481E090E007C0232B19F052
:1011D0002FEF3FEF03C082E090E09C018FEF4F3F85
:1011E0005807D9F08FEF2F3F3807B9F0809156029A
:1011F000882311F080E016C081E08093560282E0DF
:1012000080938100FA01EE0FFF1FE40FF51FE20F3C
:10121000F31FE85CFE4F808105C0109281001092A0
:10122000560280E22E960FB6F894DEBF0FBECDBFF9
:10123000CF91DF9108950F931F93DF93CF9300D049
:10124000CDB7DEB70E94280889831A82803209F45C
:1012500096C0882309F4B7C080915202909153023E
:10126000A0915402B09155020097A105B10529F54E
:101270001092C9011092D40182EF91E00E94EC011A
:1012800082EF91E06CE171E00E94A90D82EF91E0A4
:1012900060E041E00E94BD010E94770A605F784DE6
:1012A0008F4F9F4F609327027093280280932902EB
:1012B00090932A0281E080932B020E94770A609328
:1012C00052027093530280935402909355020E94ED
:1012D000770A605F784D8F4F9F4F6093270270931E
:1012E00028028093290290932A0281E080932B02A6
:1012F00082EF91E08E010F5F1F4FB8010E94A90D90
:10130000A9ECB1E0FD0101900020E9F73197EA1B5B
:10131000FB0B329720F4CD01B8010E94D6008981E1
:10132000833209F050C085ED91E069EC71E00E94D4
:10133000E1001092C9011092D40182EF91E00E9465
:10134000EC0182EF91E06CE271E00E94A90D82EF66
:1013500091E060E041E00E94BD010E94770A605F79
:10136000784D8F4F9F4F6093270270932802809390
:10137000290290932A0281E080932B0224C00E94CC
:10138000770A2091520230915302409154025091B9
:101390005502621B730B840B950B615177428040A1
:1013A000904088F0211531054105510561F01092FA
:1013B000520210925302109254021092550210924F
:1013C000C9011092D4010F900F90CF91DF911F911E
:1013D0000F9108950E94E1070E941B090E94520785
:1013E00080912B02882339F10E94770A20912702ED
:1013F000309128024091290250912A02261737077E
:1014000048075907C0F410922B0282EF91E00E9426
:10141000EC0182EF91E065E072E00E94A90D82EF9D
:1014200091E060E041E00E94BD0182EF91E066E161
:1014300072E00E94A90D08950E94BD0A0E940E0745
:101440000E94EA09FDCF1F920F920FB60F9211244E
:101450002F933F934F935F936F937F938F939F93BC
:10146000AF93BF9320915B0230915C0240915D028B
:1014700050915E0270915F02DA01C9010296A11DCE
:10148000B11D672F6A5F6D3730F06D57DA01C90102
:101490000396A11DB11D60935F0280935B02909340
:1014A0005C02A0935D02B0935E028091570290911E
:1014B0005802A0915902B0915A020196A11DB11D86
:1014C0008093570290935802A0935902B0935A0206
:1014D000BF91AF919F918F917F916F915F914F914C
:1014E0003F912F910F900FBE0F901F9018958FB7BF
:1014F000F89420915B0230915C0240915D02509122
:101500005E028FBFB901CA010895EF92FF920F9357
:101510001F937B018C018FB7F89440915B0250912F
:101520005C0260915D0270915E028FBF2FB7F894EC
:1015300080915B0290915C02A0915D02B0915E028D
:101540002FBF841B950BA60BB70BE816F9060A07ED
:101550001B0760F71F910F91FF90EF90089501977F
:1015600059F0019749F0FC01EE0FFF1F31978FB73B
:10157000F8943197F1F78FBF0895789484B582601D
:1015800084BD84B5816084BD85B5826085BD85B527
:10159000816085BDEEE6F0E0808181608083E1E8D6
:1015A000F0E0808182608083808181608083E0E8D8
:1015B000F0E0808181608083E1EBF0E080818460F5
:1015C0008083E0EBF0E0808181608083EAE7F0E0F7
:1015D000808184608083808182608083808181605B
:1015E00080838081806880831092C1000895282FB5
:1015F00030E0C901865D9E4FFC0194912A5E3E4F0A
:10160000F9018491882391F0E82FF0E0EE0FFF1F9D
:10161000E850FF4FA591B491662329F48C919095E1
:1016200089238C9308958C91892B8C930895482F4E
:1016300050E0CA01825C9E4FFC012491CA01865D84
:101640009E4FFC0194914A5E5E4FFA013491332320
:10165000D1F1222331F1233021F4809180008F7762
:1016600005C0243031F4809180008F7D809380000C
:1016700018C0213019F484B58F7704C0223021F4CA
:1016800084B58F7D84BD0DC0263021F48091B000DB
:101690008F7705C0273029F48091B0008F7D80932B
:1016A000B000E32FF0E0EE0FFF1FEE5FFE4FA591BD
:1016B000B491662329F48C91909589238C93089595
:1016C0008C91892B8C930895682F70E0CB01825CFC
:1016D0009E4FFC012491CB01865D9E4FFC014491FD
:1016E0006A5E7E4FFB019491992319F420E030E06B
:1016F00038C0222331F1233021F4809180008F778C
:1017000005C0243031F4809180008F7D809380006B
:1017100018C0213019F484B58F7704C0223021F429
:1017200084B58F7D84BD0DC0263021F48091B0003A
:101730008F7705C0273029F48091B0008F7D80938A
:10174000B000892F90E0880F991F845F9E4FFC01A5
:10175000A591B4918C9120E030E0842311F021E038
:1017600030E0C90108951F920F920FB60F92112415
:101770002F933F934F935F936F937F938F939F9399
:10178000AF93BF93EF93FF934091C600E091E002C7
:10179000F091E102CF01019660E870E00E94970E9F
:1017A0009C018091E2029091E3022817390739F0F9
:1017B000E05AFD4F40833093E1022093E002FF9115
:1017C000EF91BF91AF919F918F917F916F915F91B9
:1017D0004F913F912F910F900FBE0F901F90189532
:1017E0005F926F927F928F929F92AF92BF92CF92B1
:1017F000DF92EF92FF920F931F93CF93DF93EC0151
:101800003A014B01413281EA580787E0680780E0DE
:1018100078070CF07FC060E472E48FE090E0A401F0
:1018200093010E94CC0E2150304040405040CA01EC
:10183000B90122E030E040E050E00E94CC0E5901B6
:101840006A01A6019501209530954095509594E048
:10185000220F331F441F551F9A95D1F760E072E1A4
:101860008AE790E00E94CC0ECA01B9012FEF30E068
:1018700040E050E00E94780EA40193010E94CC0E3B
:10188000C90181509F4F181619061CF4522E5A9404
:1018900003C055245394521A60E874E88EE190E036
:1018A000A40193010E94CC0E215030404040504092
:1018B000CA01B90122E030E040E050E00E94CC0EC5
:1018C000209530954095509583E0220F331F441F9B
:1018D000551F8A95D1F760E072E18AE790E00E9497
:1018E000CC0ECA01B9012FEF30E040E050E00E9479
:1018F000780EA40193010E94CC0EC90181509F4F24
:10190000181619061CF4822F815002C081E0821B38
:10191000851500F5E885F98581E090E00A8802C028
:10192000880F991F0A94E2F7808360E874E88EE1DB
:1019300090E0A40193010E94CC0E21503040404021
:101940005040CA01B90122E030E040E050E00E947E
:10195000CC0E04C0E885F98510829501EC81FD81EB
:101960003083EE81FF812083EA85FB85208141E081
:1019700050E0CA010E8402C0880F991F0A94E2F752
:10198000282B2083EA85FB852081CA010F8402C0B1
:10199000880F991F0A94E2F7282B2083EA85FB859C
:1019A0008081088802C0440F551F0A94E2F7842BF7
:1019B0008083DF91CF911F910F91FF90EF90DF9087
:1019C000CF90BF90AF909F908F907F906F905F90DF
:1019D0000895DC011296ED91FC911397E058FF4FAA
:1019E0008191919180589F4F20813181821B930B6F
:1019F00060E870E00E94970E0895CF93DF93DC01BA
:101A00001296ED91FC911397EF01CE57DF4F48816D
:101A10005981E058FF4F80819181E058F040841750
:101A2000950719F42FEF3FEF0CC0E40FF51F20814D
:101A3000CA01019660E870E00E94970E998388833E
:101A400030E0C901DF91CF910895FC01A085B185F7
:101A500021898C9190E0022E02C0959587950A9479
:101A6000E2F780FFF6CF0484F585E02D60830895CA
:101A70008EE691E09093E5028093E40280E692E0A6
:101A80009093E7028093E60285EC90E09093E90260
:101A90008093E80284EC90E09093EB028093EA025A
:101AA00080EC90E09093ED028093EC0281EC90E06A
:101AB0009093EF028093EE0286EC90E09093F10217
:101AC0008093F00284E08093F20283E08093F3023B
:101AD00087E08093F40285E08093F50281E08093B3
:101AE000F60208950F931F93CF93DF938C01EB01C0
:101AF00009C02196D801ED91FC910190F081E02D73
:101B0000C801099568816623A1F7DF91CF911F91E4
:101B10000F910895EF92FF920F931F93CF93DF934E
:101B20008C017B01EA010CC0D7016D917D01D801C8
:101B3000ED91FC910190F081E02DC801099521976C
:101B4000209791F7DF91CF911F910F91FF90EF9028
:101B50000895DC01ED91FC910280F381E02D09955F
:101B600008952F923F924F925F926F927F928F9241
:101B70009F92AF92BF92CF92DF92EF92FF920F931C
:101B80001F93DF93CF93CDB7DEB7A0970FB6F8942E
:101B9000DEBF0FBECDBF1C016A017B01411551059F
:101BA0006105710549F4DC01ED91FC910190F08132
:101BB000E02D60E3099554C0882499245401422EF5
:101BC00055246624772401E010E00C0F1D1F080D3A
:101BD000191DC701B601A30192010E94AA0EF801C6
:101BE00060830894811C911CA11CB11CC701B60123
:101BF000A30192010E94AA0EC901DA016C017D01C4
:101C0000C114D104E104F104F1F681E0E82EF12CD5
:101C1000EC0EFD1EE80CF91C3E010894611C711CC1
:101C2000D501C4010197A109B1096C01C818D908EF
:101C300014C0F601EE0DFF1D60816A3010F4605D86
:101C400001C0695CD101ED91FC910190F081E02D22
:101C5000C10109950894E108F1086E147F0449F761
:101C6000A0960FB6F894DEBF0FBECDBFCF91DF9127
:101C70001F910F91FF90EF90DF90CF90BF90AF90AA
:101C80009F908F907F906F905F904F903F902F909C
:101C90000895EF92FF920F931F93CF93DF93EC0180
:101CA0007A018B0177FF0FC0E881F9810190F08103
:101CB000E02D6DE2099510950095F094E094E11CFB
:101CC000F11C011D111DCE01B801A7012AE00E94DF
:101CD000B10DDF91CF911F910F91FF90EF9008957B
:101CE000AB01662757FD6095762F0E94490E089537
:101CF000629FD001739FF001829FE00DF11D649FF0
:101D0000E00DF11D929FF00D839FF00D749FF00D7B
:101D1000659FF00D9927729FB00DE11DF91F639F1C
:101D2000B00DE11DF91FBD01CF011124089597FBEE
:101D3000092E07260AD077FD04D049D006D000200E
:101D40001AF4709561957F4F0895F6F790958195F7
:101D50009F4F0895A1E21A2EAA1BBB1BFD010DC0C7
:101D6000AA1FBB1FEE1FFF1FA217B307E407F5074B
:101D700020F0A21BB30BE40BF50B661F771F881F27
:101D8000991F1A9469F760957095809590959B01BD
:101D9000AC01BD01CF01089597FB092E05260ED099
:101DA00057FD04D0D7DF0AD0001C38F45095409579
:101DB000309521953F4F4F4F5F4F0895F6F790951F
:101DC0008095709561957F4F8F4F9F4F0895AA1B07
:101DD000BB1B51E107C0AA1FBB1FA617B70710F016
:101DE000A61BB70B881F991F5A95A9F78095909548
:101DF000BC01CD010895EE0FFF1F0590F491E02D79
:101E0000099411E0C6E5D1E004C0FE010E94FD0E78
:0C1E10002296C835D107C9F7F894FFCF1F
:101E1C00202057656C636F6D6520746F0020204225
:101E2C0075636B6574776F726B7321005072657399
:101E3C0073202320617420656E642E0043686563F3
:101E4C006B696E672E2E2E003132333435363738AF
:101E5C00392A302300000000AB01720D8A0D0000FE
:101E6C00400014005400000000001905720D8A0D8A
:101E7C0000000000AB01720D8A0D00000000250D62
:041E8C00720D8A0D3C
:00000001FF
